{"abi":[{"type":"constructor","inputs":[],"stateMutability":"nonpayable"},{"type":"function","name":"BASE_REPUTATION","inputs":[],"outputs":[{"name":"","type":"uint256","internalType":"uint256"}],"stateMutability":"view"},{"type":"function","name":"CORRECT_BONUS","inputs":[],"outputs":[{"name":"","type":"uint256","internalType":"uint256"}],"stateMutability":"view"},{"type":"function","name":"INCORRECT_PENALTY","inputs":[],"outputs":[{"name":"","type":"uint256","internalType":"uint256"}],"stateMutability":"view"},{"type":"function","name":"MAX_REPUTATION","inputs":[],"outputs":[{"name":"","type":"uint256","internalType":"uint256"}],"stateMutability":"view"},{"type":"function","name":"correctBets","inputs":[{"name":"","type":"address","internalType":"address"}],"outputs":[{"name":"","type":"uint256","internalType":"uint256"}],"stateMutability":"view"},{"type":"function","name":"getReputation","inputs":[{"name":"user","type":"address","internalType":"address"}],"outputs":[{"name":"","type":"uint256","internalType":"uint256"}],"stateMutability":"view"},{"type":"function","name":"getStats","inputs":[{"name":"user","type":"address","internalType":"address"}],"outputs":[{"name":"rep","type":"uint256","internalType":"uint256"},{"name":"total","type":"uint256","internalType":"uint256"},{"name":"correct","type":"uint256","internalType":"uint256"},{"name":"accuracy","type":"uint256","internalType":"uint256"}],"stateMutability":"view"},{"type":"function","name":"getWeight","inputs":[{"name":"user","type":"address","internalType":"address"}],"outputs":[{"name":"","type":"uint256","internalType":"uint256"}],"stateMutability":"view"},{"type":"function","name":"owner","inputs":[],"outputs":[{"name":"","type":"address","internalType":"address"}],"stateMutability":"view"},{"type":"function","name":"predictionMarket","inputs":[],"outputs":[{"name":"","type":"address","internalType":"address"}],"stateMutability":"view"},{"type":"function","name":"renounceOwnership","inputs":[],"outputs":[],"stateMutability":"nonpayable"},{"type":"function","name":"reputation","inputs":[{"name":"","type":"address","internalType":"address"}],"outputs":[{"name":"","type":"uint256","internalType":"uint256"}],"stateMutability":"view"},{"type":"function","name":"setPredictionMarket","inputs":[{"name":"_predictionMarket","type":"address","internalType":"address"}],"outputs":[],"stateMutability":"nonpayable"},{"type":"function","name":"totalBets","inputs":[{"name":"","type":"address","internalType":"address"}],"outputs":[{"name":"","type":"uint256","internalType":"uint256"}],"stateMutability":"view"},{"type":"function","name":"transferOwnership","inputs":[{"name":"newOwner","type":"address","internalType":"address"}],"outputs":[],"stateMutability":"nonpayable"},{"type":"function","name":"updateReputation","inputs":[{"name":"user","type":"address","internalType":"address"},{"name":"correct","type":"bool","internalType":"bool"}],"outputs":[],"stateMutability":"nonpayable"},{"type":"event","name":"OwnershipTransferred","inputs":[{"name":"previousOwner","type":"address","indexed":true,"internalType":"address"},{"name":"newOwner","type":"address","indexed":true,"internalType":"address"}],"anonymous":false},{"type":"event","name":"ReputationUpdated","inputs":[{"name":"user","type":"address","indexed":true,"internalType":"address"},{"name":"newReputation","type":"uint256","indexed":false,"internalType":"uint256"},{"name":"correct","type":"bool","indexed":false,"internalType":"bool"}],"anonymous":false},{"type":"error","name":"OwnableInvalidOwner","inputs":[{"name":"owner","type":"address","internalType":"address"}]},{"type":"error","name":"OwnableUnauthorizedAccount","inputs":[{"name":"account","type":"address","internalType":"address"}]}],"bytecode":{"object":"0x608080604052346071573315605e575f8054336001600160a01b0319821681178355916001600160a01b03909116907f8be0079c531659141344cd1fd0a4f28419497f9722a3daafe3b4186f6b6457e09080a36107cc90816100768239f35b631e4fbdf760e01b5f525f60045260245ffd5b5f80fdfe60806040526004361015610011575f80fd5b5f3560e01c806303b88ba2146106455780630ab5cb641461060d5780634f2b0d4a146105f2578063715018a61461059b5780638da5cb5b146105745780639c89a0e21461051e578063ac6c5251146104f3578063b9f79451146104bb578063c23f85d61461040d578063c71752de146103d5578063d213c0f2146103b9578063d37ca9db1461039e578063def114b614610376578063e2c13e321461016d578063efd79b13146101525763f2fde38b146100c9575f80fd5b3461014e57602036600319011261014e576100e2610688565b6100ea610770565b6001600160a01b0316801561013b575f80546001600160a01b03198116831782556001600160a01b0316907f8be0079c531659141344cd1fd0a4f28419497f9722a3daafe3b4186f6b6457e09080a3005b631e4fbdf760e01b5f525f60045260245ffd5b5f80fd5b3461014e575f36600319011261014e576020604051600a8152f35b3461014e57604036600319011261014e57610186610688565b602435908115159081830361014e576004546001600160a01b03163303610338576001600160a01b03165f8181526001602052604090205490929015610324575b825f52600260205260405f206101dd8154610762565b9055156102c357815f52600360205260405f206101fa8154610762565b9055815f52600160205260405f2054600a8101809111610277576103e81061028b57815f52600160205260405f20805491600a8301809311610277577fdb3885afbba6debf9c1bda35746ffcd3e3c749b3742be7c9a0904981b5befb9992604092555b835f526001602052815f20549082519182526020820152a2005b634e487b7160e01b5f52601160045260245ffd5b60407fdb3885afbba6debf9c1bda35746ffcd3e3c749b3742be7c9a0904981b5befb9991835f5260016020526103e8825f205561025d565b815f526001602052600560405f205411610301575b60407fdb3885afbba6debf9c1bda35746ffcd3e3c749b3742be7c9a0904981b5befb999161025d565b815f52600160205260405f208054916004198301928311610277579190556102d8565b825f526001602052606460405f20556101c7565b60405162461bcd60e51b815260206004820152601660248201527513db9b1e481c1c99591a58dd1a5bdb881b585c9ad95d60521b6044820152606490fd5b3461014e575f36600319011261014e576004546040516001600160a01b039091168152602090f35b3461014e575f36600319011261014e57602060405160058152f35b3461014e575f36600319011261014e5760206040516103e88152f35b3461014e57602036600319011261014e576001600160a01b036103f6610688565b165f526003602052602060405f2054604051908152f35b3461014e57602036600319011261014e576001600160a01b0361042e610688565b16805f52600160205260405f2054155f146104a95760645b5f9182526002602090815260408084205460039092529092205491801561049f57606483029280840460641481151715610277576104868260809561069e565b915b604051938452602084015260408301526060820152f35b6080925f91610488565b805f52600160205260405f2054610446565b3461014e57602036600319011261014e576001600160a01b036104dc610688565b165f526001602052602060405f2054604051908152f35b3461014e57602036600319011261014e576020610516610511610688565b6106bc565b604051908152f35b3461014e57602036600319011261014e576001600160a01b0361053f610688565b16805f52600160205260405f2054155f14610561575060206064604051908152f35b5f526001602052602060405f2054610516565b3461014e575f36600319011261014e575f546040516001600160a01b039091168152602090f35b3461014e575f36600319011261014e576105b3610770565b5f80546001600160a01b0319811682556001600160a01b03167f8be0079c531659141344cd1fd0a4f28419497f9722a3daafe3b4186f6b6457e08280a3005b3461014e575f36600319011261014e57602060405160648152f35b3461014e57602036600319011261014e576001600160a01b0361062e610688565b165f526002602052602060405f2054604051908152f35b3461014e57602036600319011261014e5761065e610688565b610666610770565b600480546001600160a01b0319166001600160a01b0392909216919091179055005b600435906001600160a01b038216820361014e57565b81156106a8570490565b634e487b7160e01b5f52601260045260245ffd5b6001600160a01b03165f818152600260205260409020541561075c57805f52600160205260405f2054155f14610749576064905b805f52600360205260405f205460648102908082046064149015171561027757610726915f52600260205260405f20549061069e565b603201908160321161027757818102918183041490151715610277576064900490565b805f52600160205260405f2054906106f0565b50606490565b5f1981146102775760010190565b5f546001600160a01b0316330361078357565b63118cdaa760e01b5f523360045260245ffdfea2646970667358221220485fae34e2e92fdba634434cef1048316f7c081e610d4f4cd8f977a609ef87c564736f6c63430008210033","linkReferences":{}},"methodIdentifiers":{"BASE_REPUTATION()":"4f2b0d4a","CORRECT_BONUS()":"efd79b13","INCORRECT_PENALTY()":"d37ca9db","MAX_REPUTATION()":"d213c0f2","correctBets(address)":"c71752de","getReputation(address)":"9c89a0e2","getStats(address)":"c23f85d6","getWeight(address)":"ac6c5251","owner()":"8da5cb5b","predictionMarket()":"def114b6","renounceOwnership()":"715018a6","reputation(address)":"b9f79451","setPredictionMarket(address)":"03b88ba2","totalBets(address)":"0ab5cb64","transferOwnership(address)":"f2fde38b","updateReputation(address,bool)":"e2c13e32"},"id":2}