{"abi":[{"type":"constructor","inputs":[{"name":"_reputationSystem","type":"address","internalType":"address"}],"stateMutability":"nonpayable"},{"type":"function","name":"FEE_DENOMINATOR","inputs":[],"outputs":[{"name":"","type":"uint256","internalType":"uint256"}],"stateMutability":"view"},{"type":"function","name":"PLATFORM_FEE","inputs":[],"outputs":[{"name":"","type":"uint256","internalType":"uint256"}],"stateMutability":"view"},{"type":"function","name":"betCount","inputs":[],"outputs":[{"name":"","type":"uint256","internalType":"uint256"}],"stateMutability":"view"},{"type":"function","name":"bets","inputs":[{"name":"","type":"uint256","internalType":"uint256"}],"outputs":[{"name":"id","type":"uint256","internalType":"uint256"},{"name":"bettor","type":"address","internalType":"address"},{"name":"marketId","type":"uint256","internalType":"uint256"},{"name":"outcomeIndex","type":"uint256","internalType":"uint256"},{"name":"amount","type":"uint256","internalType":"uint256"},{"name":"shares","type":"uint256","internalType":"uint256"},{"name":"timestamp","type":"uint256","internalType":"uint256"},{"name":"claimed","type":"bool","internalType":"bool"}],"stateMutability":"view"},{"type":"function","name":"buyPosition","inputs":[{"name":"_betId","type":"uint256","internalType":"uint256"}],"outputs":[],"stateMutability":"payable"},{"type":"function","name":"calculateShares","inputs":[{"name":"_marketId","type":"uint256","internalType":"uint256"},{"name":"_outcomeIndex","type":"uint256","internalType":"uint256"},{"name":"_amount","type":"uint256","internalType":"uint256"}],"outputs":[{"name":"","type":"uint256","internalType":"uint256"}],"stateMutability":"view"},{"type":"function","name":"cancelListing","inputs":[{"name":"_betId","type":"uint256","internalType":"uint256"}],"outputs":[],"stateMutability":"nonpayable"},{"type":"function","name":"claimWinnings","inputs":[{"name":"_betId","type":"uint256","internalType":"uint256"}],"outputs":[],"stateMutability":"nonpayable"},{"type":"function","name":"collectedFees","inputs":[{"name":"","type":"address","internalType":"address"}],"outputs":[{"name":"","type":"uint256","internalType":"uint256"}],"stateMutability":"view"},{"type":"function","name":"createMarket","inputs":[{"name":"_question","type":"string","internalType":"string"},{"name":"_description","type":"string","internalType":"string"},{"name":"_outcomes","type":"string[]","internalType":"string[]"},{"name":"_resolutionTime","type":"uint256","internalType":"uint256"},{"name":"_arbitrator","type":"address","internalType":"address"},{"name":"_tokenAddress","type":"address","internalType":"address"}],"outputs":[{"name":"","type":"uint256","internalType":"uint256"}],"stateMutability":"nonpayable"},{"type":"function","name":"getAvailableFees","inputs":[{"name":"_tokenAddress","type":"address","internalType":"address"}],"outputs":[{"name":"","type":"uint256","internalType":"uint256"}],"stateMutability":"view"},{"type":"function","name":"getMarket","inputs":[{"name":"_marketId","type":"uint256","internalType":"uint256"}],"outputs":[{"name":"id","type":"uint256","internalType":"uint256"},{"name":"question","type":"string","internalType":"string"},{"name":"description","type":"string","internalType":"string"},{"name":"outcomes","type":"string[]","internalType":"string[]"},{"name":"resolutionTime","type":"uint256","internalType":"uint256"},{"name":"arbitrator","type":"address","internalType":"address"},{"name":"creator","type":"address","internalType":"address"},{"name":"status","type":"uint8","internalType":"enum PredictionMarket.MarketStatus"},{"name":"totalVolume","type":"uint256","internalType":"uint256"},{"name":"tokenAddress","type":"address","internalType":"address"}],"stateMutability":"view"},{"type":"function","name":"getMarketBets","inputs":[{"name":"_marketId","type":"uint256","internalType":"uint256"}],"outputs":[{"name":"","type":"uint256[]","internalType":"uint256[]"}],"stateMutability":"view"},{"type":"function","name":"getPrice","inputs":[{"name":"_marketId","type":"uint256","internalType":"uint256"},{"name":"_outcomeIndex","type":"uint256","internalType":"uint256"}],"outputs":[{"name":"","type":"uint256","internalType":"uint256"}],"stateMutability":"view"},{"type":"function","name":"getTotalPool","inputs":[{"name":"_marketId","type":"uint256","internalType":"uint256"}],"outputs":[{"name":"","type":"uint256","internalType":"uint256"}],"stateMutability":"view"},{"type":"function","name":"getUserBets","inputs":[{"name":"_user","type":"address","internalType":"address"}],"outputs":[{"name":"","type":"uint256[]","internalType":"uint256[]"}],"stateMutability":"view"},{"type":"function","name":"listPosition","inputs":[{"name":"_betId","type":"uint256","internalType":"uint256"},{"name":"_price","type":"uint256","internalType":"uint256"}],"outputs":[],"stateMutability":"nonpayable"},{"type":"function","name":"marketBets","inputs":[{"name":"","type":"uint256","internalType":"uint256"},{"name":"","type":"uint256","internalType":"uint256"}],"outputs":[{"name":"","type":"uint256","internalType":"uint256"}],"stateMutability":"view"},{"type":"function","name":"marketCount","inputs":[],"outputs":[{"name":"","type":"uint256","internalType":"uint256"}],"stateMutability":"view"},{"type":"function","name":"markets","inputs":[{"name":"","type":"uint256","internalType":"uint256"}],"outputs":[{"name":"id","type":"uint256","internalType":"uint256"},{"name":"question","type":"string","internalType":"string"},{"name":"description","type":"string","internalType":"string"},{"name":"resolutionTime","type":"uint256","internalType":"uint256"},{"name":"arbitrator","type":"address","internalType":"address"},{"name":"creator","type":"address","internalType":"address"},{"name":"createdAt","type":"uint256","internalType":"uint256"},{"name":"status","type":"uint8","internalType":"enum PredictionMarket.MarketStatus"},{"name":"winningOutcome","type":"uint256","internalType":"uint256"},{"name":"tokenAddress","type":"address","internalType":"address"},{"name":"totalVolume","type":"uint256","internalType":"uint256"}],"stateMutability":"view"},{"type":"function","name":"outcomePools","inputs":[{"name":"","type":"uint256","internalType":"uint256"},{"name":"","type":"uint256","internalType":"uint256"}],"outputs":[{"name":"","type":"uint256","internalType":"uint256"}],"stateMutability":"view"},{"type":"function","name":"outcomeShares","inputs":[{"name":"","type":"uint256","internalType":"uint256"},{"name":"","type":"uint256","internalType":"uint256"}],"outputs":[{"name":"","type":"uint256","internalType":"uint256"}],"stateMutability":"view"},{"type":"function","name":"owner","inputs":[],"outputs":[{"name":"","type":"address","internalType":"address"}],"stateMutability":"view"},{"type":"function","name":"placeBet","inputs":[{"name":"_marketId","type":"uint256","internalType":"uint256"},{"name":"_outcomeIndex","type":"uint256","internalType":"uint256"},{"name":"_amount","type":"uint256","internalType":"uint256"},{"name":"_minShares","type":"uint256","internalType":"uint256"}],"outputs":[{"name":"","type":"uint256","internalType":"uint256"}],"stateMutability":"payable"},{"type":"function","name":"positionPrices","inputs":[{"name":"","type":"uint256","internalType":"uint256"}],"outputs":[{"name":"","type":"uint256","internalType":"uint256"}],"stateMutability":"view"},{"type":"function","name":"positionsForSale","inputs":[{"name":"","type":"uint256","internalType":"uint256"}],"outputs":[{"name":"","type":"bool","internalType":"bool"}],"stateMutability":"view"},{"type":"function","name":"renounceOwnership","inputs":[],"outputs":[],"stateMutability":"nonpayable"},{"type":"function","name":"reputationSystem","inputs":[],"outputs":[{"name":"","type":"address","internalType":"contract IReputationSystem"}],"stateMutability":"view"},{"type":"function","name":"resolveMarket","inputs":[{"name":"_marketId","type":"uint256","internalType":"uint256"},{"name":"_winningOutcome","type":"uint256","internalType":"uint256"}],"outputs":[],"stateMutability":"nonpayable"},{"type":"function","name":"transferOwnership","inputs":[{"name":"newOwner","type":"address","internalType":"address"}],"outputs":[],"stateMutability":"nonpayable"},{"type":"function","name":"userBets","inputs":[{"name":"","type":"address","internalType":"address"},{"name":"","type":"uint256","internalType":"uint256"}],"outputs":[{"name":"","type":"uint256","internalType":"uint256"}],"stateMutability":"view"},{"type":"function","name":"withdrawFees","inputs":[{"name":"_tokenAddress","type":"address","internalType":"address"}],"outputs":[],"stateMutability":"nonpayable"},{"type":"event","name":"BetPlaced","inputs":[{"name":"betId","type":"uint256","indexed":true,"internalType":"uint256"},{"name":"marketId","type":"uint256","indexed":true,"internalType":"uint256"},{"name":"bettor","type":"address","indexed":true,"internalType":"address"},{"name":"amount","type":"uint256","indexed":false,"internalType":"uint256"}],"anonymous":false},{"type":"event","name":"FeesWithdrawn","inputs":[{"name":"token","type":"address","indexed":true,"internalType":"address"},{"name":"amount","type":"uint256","indexed":false,"internalType":"uint256"},{"name":"to","type":"address","indexed":true,"internalType":"address"}],"anonymous":false},{"type":"event","name":"MarketCreated","inputs":[{"name":"marketId","type":"uint256","indexed":true,"internalType":"uint256"},{"name":"creator","type":"address","indexed":true,"internalType":"address"},{"name":"question","type":"string","indexed":false,"internalType":"string"}],"anonymous":false},{"type":"event","name":"MarketResolved","inputs":[{"name":"marketId","type":"uint256","indexed":true,"internalType":"uint256"},{"name":"winningOutcome","type":"uint256","indexed":false,"internalType":"uint256"}],"anonymous":false},{"type":"event","name":"OwnershipTransferred","inputs":[{"name":"previousOwner","type":"address","indexed":true,"internalType":"address"},{"name":"newOwner","type":"address","indexed":true,"internalType":"address"}],"anonymous":false},{"type":"event","name":"PositionListed","inputs":[{"name":"betId","type":"uint256","indexed":true,"internalType":"uint256"},{"name":"price","type":"uint256","indexed":false,"internalType":"uint256"}],"anonymous":false},{"type":"event","name":"PositionSold","inputs":[{"name":"betId","type":"uint256","indexed":true,"internalType":"uint256"},{"name":"seller","type":"address","indexed":false,"internalType":"address"},{"name":"buyer","type":"address","indexed":false,"internalType":"address"},{"name":"price","type":"uint256","indexed":false,"internalType":"uint256"}],"anonymous":false},{"type":"event","name":"WinningsClaimed","inputs":[{"name":"betId","type":"uint256","indexed":true,"internalType":"uint256"},{"name":"claimer","type":"address","indexed":true,"internalType":"address"},{"name":"amount","type":"uint256","indexed":false,"internalType":"uint256"}],"anonymous":false},{"type":"error","name":"OwnableInvalidOwner","inputs":[{"name":"owner","type":"address","internalType":"address"}]},{"type":"error","name":"OwnableUnauthorizedAccount","inputs":[{"name":"account","type":"address","internalType":"address"}]},{"type":"error","name":"ReentrancyGuardReentrantCall","inputs":[]}],"bytecode":{"object":"0x6080346100f657601f6124b138819003918201601f19168301916001600160401b038311848410176100fa578084926020946040528339810103126100f657516001600160a01b038116908190036100f65760017f9b779b17422d0df92223018b32b4d1fa46e071723d6817e2486d003becc55f005533156100e3575f8054336001600160a01b0319821681178355604051939290916001600160a01b0316907f8be0079c531659141344cd1fd0a4f28419497f9722a3daafe3b4186f6b6457e09080a3600380546001600160a01b0319169190911790556123a2908161010f8239f35b631e4fbdf760e01b5f525f60045260245ffd5b5f80fd5b634e487b7160e01b5f52604160045260245ffdfe6080806040526004361015610012575f80fd5b5f905f3560e01c9081627a94c114611d5e575080630cc90fe114611d345780630fd9eab414611a69578063164e68de146119095780631cead9a7146118d157806322af00fa1461184d5780632d56657d146117db578063305a67a81461171057806334fbc9a1146116f55780633a35b9bd146116d75780633adadc0a146116635780635473543c146116345780635cf4ee911461161b578063605573331461150c5780636587eda1146114e4578063677bd9ff14611189578063715018a61461112f5780638068aa68146110e757806383bd2467146110ba5780638da5cb5b146110935780639395c51d14610999578063a501f0a41461096c578063b1283e7714610882578063c3df2be01461077b578063cf0944971461075d578063d73792a914610741578063eb44fdd3146105bd578063ec9790821461059f578063eea04d0914610572578063f2e5502114610531578063f2fde38b146104ab5763fde6adb11461017d575f80fd5b60803660031901126104a857600435602435916044359061019c6122ee565b8281526004602052604081209060ff6008830154166004811015610494576101c490156121cf565b600482015442101561045f576101df6003830154861061220d565b821561042557600a8201546001600160a01b0316806103ab575082340361036f575b61020c838686612274565b90606435821061033657600b6102ed9360409360209861022d60025461224b565b8060025580865260078b528686209081556001810160018060a01b0333166001600160601b0360a01b82541617905589600282015581600382015588600482015582600582015560064291015588855260058a528585208186528a528585206102978982546120f2565b905588855260068a5285852090855289526102b68585209182546120f2565b9055016102c48582546120f2565b9055338152600886526102dc82822060025490611fd9565b848152600986522060025490611fd9565b60025491604051918252827ffdd8ed02332acacb3420e7345a9adadb30877075eade2bcde9fe778e8bb71e42853394a460015f51602061234d5f395f51905f5255604051908152f35b60405162461bcd60e51b815260206004820152601160248201527014db1a5c1c1859d948195e18d959591959607a1b6044820152606490fd5b60405162461bcd60e51b8152602060048201526014602482015273125b98dbdc9c9958dd0811551208185b5bdd5b9d60621b6044820152606490fd5b6040516323b872dd60e01b815233600482015230602482015260448101859052906020908290606490829086905af1801561041a576103eb575b50610201565b61040c9060203d602011610413575b6104048183611e20565b81019061200d565b505f6103e5565b503d6103fa565b6040513d84823e3d90fd5b60405162461bcd60e51b81526020600482015260126024820152710416d6f756e74206d757374206265203e20360741b6044820152606490fd5b60405162461bcd60e51b815260206004820152600d60248201526c13585c9ad95d0818db1bdcd959609a1b6044820152606490fd5b634e487b7160e01b82526021600452602482fd5b80fd5b50346104a85760203660031901126104a8576104c5611d92565b6104cd612326565b6001600160a01b0316801561051d5781546001600160a01b03198116821783556001600160a01b03167f8be0079c531659141344cd1fd0a4f28419497f9722a3daafe3b4186f6b6457e08380a380f35b631e4fbdf760e01b82526004829052602482fd5b50346104a85761054036611de1565b919081526009602052604081209081548310156104a85760206105638484611df7565b90549060031b1c604051908152f35b50346104a85760603660031901126104a8576020610597604435602435600435612274565b604051908152f35b50346104a857806003193601126104a8576020600154604051908152f35b50346104a85760203660031901126104a857600480358252602081905260408220805491810154600582015460068301546008840154600b850154600a860154959760038901966001600160a01b0390811696929560ff90941694811693169190610636600261062f60018d01611f08565b9b01611f08565b88549a6106428c611eb8565b9b6106506040519d8e611e20565b808d5260208d01809b85526020852085915b83831061072457505050509061068f61069d9261014060206040519e8f90815201526101408d0190611fa8565b908b820360408d0152611fa8565b99898b0360608b015251808b5260208b0160208260051b8d01019992905b8282106106f7578b808c8c8c6106e78d8d8d8d608089015260a088015260c087015260e0860190611fcc565b6101008401526101208301520390f35b909192996020806107168f938e600195601f1990830301875251611fa8565b9c01920192019092916106bb565b60016020819261073385611f08565b815201920192019190610662565b50346104a857806003193601126104a857602060405160648152f35b50346104a857806003193601126104a8576020600254604051908152f35b50346104a85761078a36611de1565b8183526007602052604083206107ad60018060a01b0360018301541633146120b7565b60ff60078201541661084757600201548352600460205260ff6008604085200154166004811015610833577ff4a710dfd45490bc94ca01a601a1bfe739a98325282d5b7cbad3e7772ea87c2991610806602092156121cf565b838552600a825260408520600160ff19825416179055838552600b8252806040862055604051908152a280f35b634e487b7160e01b84526021600452602484fd5b60405162461bcd60e51b815260206004820152601360248201527210995d08185b1c9958591e4818db185a5b5959606a1b6044820152606490fd5b50346104a85760203660031901126104a85760406101609160043581526004602052208054906108b460018201611f08565b6108c060028301611f08565b9160048101549261095660018060a01b0360058401541660018060a01b0360068501541660078501549060ff60088701541692610937600988015496610929600b60018060a01b03600a8c0154169a01549a6040519e8f9e8f9081528160208201520190611fa8565b8c810360408e015290611fa8565b9860608b015260808a015260a089015260c088015260e0870190611fcc565b6101008501526101208401526101408301520390f35b50346104a857604060209161098036611de1565b9082526006845282822090825283522054604051908152f35b50346104a85760c03660031901126104a85760043567ffffffffffffffff811161108f576109cb903690600401611e72565b60243567ffffffffffffffff811161108b576109eb903690600401611e72565b6044359067ffffffffffffffff82116110875736602383011215611087578160040135610a1781611eb8565b92610a256040519485611e20565b818452602084019160051b81016024018236821161104b5760248301905b828210611053575050506084356001600160a01b0381169260643592509083900361104f5760a435946001600160a01b038616860361104b5760028151106110065742831115610fc1578315610f8757610a9e60015461224b565b948560015585895260046020526040892095865560018601885167ffffffffffffffff8111610ecb57610ad18254611ed0565b601f8111610f4b575b506020601f8211600114610eea579080610b08928d91610edf575b508160011b915f199060031b1c19161790565b90555b8051600287019167ffffffffffffffff8211610ecb57610b2b8354611ed0565b601f8111610e87575b50602090601f8311600114610e2557610b6492918c9183610cc0575b50508160011b915f199060031b1c19161790565b90555b60038501905191600160401b8311610e11578154838355808410610d93575b509088526020882088915b838310610c505760208989600a8a8e8b8b600484015560058301906001600160601b0360a01b8254161790556006820160018060a01b0333166001600160601b0360a01b82541617905542600783015560088201905060ff198154169055019060018060a01b03166001600160601b0360a01b82541617905560015490817fb143feb0c79e12e29a00674ccaf4e7e613c6fbc3b56b99a0e353faee3c0b8f7860405185815280610c45339588830190611fa8565b0390a3604051908152f35b805180519067ffffffffffffffff8211610d7f578b610c6f8554611ed0565b601f8111610d33575b50506020908c601f8411600114610ccb578360019592946020948796610cb19492610cc05750508160011b915f199060031b1c19161790565b85555b01920192019190610b91565b015190505f80610b50565b9190601f198416868452828420935b818110610d1b5750936020936001969387969383889510610d03575b505050811b018555610cb4565b01515f1960f88460031b161c191690555f8080610cf6565b92936020600181928786015181550195019301610cda565b85848211610d42575b50610c78565b610d6f92528d6020812091601f860160051c9160208710610d77575b50601f82910160051c039101612259565b8b5f85610d3c565b91508f610d5e565b634e487b7160e01b8c52604160045260248cfd5b828a52838060208c20019103908a5b828110610db0575050610b86565b808c6001928401610dc18154611ed0565b80610dd0575b50505001610da2565b601f81118514610de55750555b8c5f80610dc7565b81835260208320610e0191601f0160051c5f1901908601612259565b8082528160208120915555610ddd565b634e487b7160e01b89526041600452602489fd5b838c52818c209190601f1984168d5b818110610e6f5750908460019594939210610e57575b505050811b019055610b67565b01515f1960f88460031b161c191690555f8080610e4a565b92936020600181928786015181550195019301610e34565b82811115610b3457610ebd90848d528c6020812091601f860160051c9160208710610ec35750601f82910160051c039101612259565b5f610b34565b91508e610d5e565b634e487b7160e01b8b52604160045260248bfd5b90508b01515f610af5565b828c52808c2090601f1983168d5b8d828210610f335750509083600194939210610f1b575b5050811b019055610b0b565b8c01515f1960f88460031b161c191690555f80610f0f565b60018495602093958493015181550194019201610ef8565b81811115610ada57610f8190838d528c6020812091601f850160051c9160208610610ec35750601f82910160051c039101612259565b5f610ada565b60405162461bcd60e51b815260206004820152601260248201527124b73b30b634b21030b93134ba3930ba37b960711b6044820152606490fd5b60405162461bcd60e51b815260206004820152601c60248201527f5265736f6c7574696f6e206d75737420626520696e20667574757265000000006044820152606490fd5b60405162461bcd60e51b815260206004820152601860248201527f4e656564206174206c656173742032206f7574636f6d657300000000000000006044820152606490fd5b8780fd5b8680fd5b813567ffffffffffffffff811161108357602091611078839260243691890101611e72565b815201910190610a43565b8980fd5b8380fd5b8280fd5b5080fd5b50346104a857806003193601126104a857546040516001600160a01b039091168152602090f35b50346104a85760406020916110ce36611de1565b9082526005845282822090825283522054604051908152f35b50346104a85760403660031901126104a857611101611d92565b6001600160a01b03168152600860205260408120805460243592908310156104a85760206105638484611df7565b50346104a857806003193601126104a857611148612326565b80546001600160a01b03198116825581906001600160a01b03167f8be0079c531659141344cd1fd0a4f28419497f9722a3daafe3b4186f6b6457e08280a380f35b503461145a57602036600319011261145a576004356111a66122ee565b805f52600760205260405f20906002820180545f52600460205260405f20926111dc60018060a01b0360018301541633146120b7565b600781019182549260ff84166114ad5760ff60088701541660048110156114995760020361145e5760038301549360098701948554145f146113e557509161125b916112609493600160ff1982541617905554928388526006602052604088209054885260205260056112536040892054946120ff565b910154612151565b612164565b8060011b818104600214821517156113d1576112826064600a92048093612096565b93019060018060a01b038254168552600c6020526112a5604086209182546120f2565b905560035484906001600160a01b0316803b1561108f578180916044604051809481936371609f1960e11b8352336004840152600160248401525af1801561041a576113bc575b5050546001600160a01b03168061135857506113178380808086335af1611311612025565b50612054565b6040519182527f5380cf6fe903b40c6d5a9e0dfbca2f3a423f0a21520b4d5947ed5169bdba946d60203393a35b60015f51602061234d5f395f51905f525580f35b60405163a9059cbb60e01b815233600482015260248101849052906020908290604490829088905af180156113b157611392575b50611317565b6113aa9060203d602011610413576104048183611e20565b505f61138c565b6040513d86823e3d90fd5b816113c691611e20565b61108757835f6112ec565b634e487b7160e01b85526011600452602485fd5b60ff1916600117905550506003546001600160a01b031692505050803b1561145a575f80916044604051809481936371609f1960e11b83523360048401528160248401525af1801561144f5761143c575b50611344565b61144891505f90611e20565b5f5f611436565b6040513d5f823e3d90fd5b5f80fd5b60405162461bcd60e51b815260206004820152601360248201527213585c9ad95d081b9bdd081c995cdbdb1d9959606a1b6044820152606490fd5b634e487b7160e01b5f52602160045260245ffd5b60405162461bcd60e51b815260206004820152600f60248201526e105b1c9958591e4818db185a5b5959608a1b6044820152606490fd5b3461145a575f36600319011261145a576003546040516001600160a01b039091168152602090f35b3461145a5761151a36611de1565b5f82815260046020526040902060058101549091906001600160a01b031633036115e457600882019060ff82541660048110156114995761155b90156121cf565b600483015442106115b3578060098460209461159d60037f6dfc24f0f2fb42e49fb4fa3ffa8abb148cab908a1fb8335b3f128a08b2594af1980154851061220d565b805460ff191660021790550155604051908152a2005b60405162461bcd60e51b8152602060048201526009602482015268546f6f206561726c7960b81b6044820152606490fd5b60405162461bcd60e51b815260206004820152600f60248201526e27b7363c9030b93134ba3930ba37b960891b6044820152606490fd5b3461145a57602061059761162e36611de1565b90612182565b3461145a57602036600319011261145a576004355f52600a602052602060ff60405f2054166040519015158152f35b3461145a57602036600319011261145a576004355f52600960205260405f206040519081602082549182815201915f5260205f20905f5b8181106116c1576116bd856116b181870382611e20565b60405191829182611da8565b0390f35b825484526020909301926001928301920161169a565b3461145a57602036600319011261145a5760206105976004356120ff565b3461145a575f36600319011261145a57602060405160028152f35b3461145a57602036600319011261145a57600435805f52600760205261174660018060a01b03600160405f2001541633146120b7565b805f52600a60205260ff60405f205416156117a957805f52600a60205260405f2060ff198154169055805f52600b6020525f60408120557ff4a710dfd45490bc94ca01a601a1bfe739a98325282d5b7cbad3e7772ea87c2960206040515f8152a2005b60405162461bcd60e51b815260206004820152600a602482015269139bdd081b1a5cdd195960b21b6044820152606490fd5b3461145a57602036600319011261145a576001600160a01b036117fc611d92565b165f52600860205260405f206040519081602082549182815201915f5260205f20905f5b818110611837576116bd856116b181870382611e20565b8254845260209093019260019283019201611820565b3461145a57602036600319011261145a576004355f52600760205261010060405f2080549060018060a01b03600182015416906002810154600382015460048301549060058401549260ff600760068701549601541695604051978852602088015260408701526060860152608085015260a084015260c0830152151560e0820152f35b3461145a57602036600319011261145a576001600160a01b036118f2611d92565b165f52600c602052602060405f2054604051908152f35b3461145a57602036600319011261145a57611922611d92565b61192a612326565b6119326122ee565b6001600160a01b03165f818152600c6020526040902054908115611a2e575f818152600c6020526040812055806119ca5761197f5f8080808660018060a01b038254165af1611311612025565b5f546040519283526001600160a01b0316917f87044da2612407bc001bb0985725dcc651a0dc71eaabfd1d7e8617ca85a8c19c90602090a360015f51602061234d5f395f51905f5255005b5f5460405163a9059cbb60e01b81526001600160a01b03909116600482015260248101839052602081806044810103815f865af1801561144f57611a0f575b5061197f565b611a279060203d602011610413576104048183611e20565b5082611a09565b60405162461bcd60e51b81526020600482015260136024820152724e6f206665657320746f20776974686472617760681b6044820152606490fd5b602036600319011261145a57600435611a806122ee565b805f52600a60205260ff60405f20541615611cf7575f818152600760209081526040808320600281015484526004835281842060019091018054868652600b855283862054336001600160a01b031983168117909355600a8652848720805460ff191690559186526008909452919093206001600160a01b03909216929091611b0a908590611fd9565b600a01546001600160a01b031680611c225750803410611bea57611b375f80808085875af1611311612025565b803411611b97575b7ff2dde94af6f8c6ca7199daa8b494c3c6cf39d91b218051b16f548b2bc45d3ae5915b604080516001600160a01b03929092168252336020830152810191909152606090a260015f51602061234d5f395f51905f5255005b5f808080611ba58534612096565b335af1611bb0612025565b50611b3f5760405162461bcd60e51b815260206004820152600d60248201526c1499599d5b990819985a5b1959609a1b6044820152606490fd5b60405162461bcd60e51b815260206004820152601060248201526f092dce6eaccccd2c6d2cadce8408aa8960831b6044820152606490fd5b9134611cb3576040516323b872dd60e01b81523360048201526001600160a01b03821660248201526044810183905292602090849060649082905f905af192831561144f577ff2dde94af6f8c6ca7199daa8b494c3c6cf39d91b218051b16f548b2bc45d3ae593611c94575b50611b62565b611cac9060203d602011610413576104048183611e20565b5084611c8e565b606460405162461bcd60e51b815260206004820152602060248201527f446f206e6f742073656e642045544820666f72204552433230206d61726b65746044820152fd5b60405162461bcd60e51b8152602060048201526015602482015274506f736974696f6e206e6f7420666f722073616c6560581b6044820152606490fd5b3461145a57602036600319011261145a576004355f52600b602052602060405f2054604051908152f35b3461145a57602036600319011261145a576020906001600160a01b03611d82611d92565b165f52600c825260405f20548152f35b600435906001600160a01b038216820361145a57565b60206040818301928281528451809452019201905f5b818110611dcb5750505090565b8251845260209384019390920191600101611dbe565b604090600319011261145a576004359060243590565b8054821015611e0c575f5260205f2001905f90565b634e487b7160e01b5f52603260045260245ffd5b90601f8019910116810190811067ffffffffffffffff821117611e4257604052565b634e487b7160e01b5f52604160045260245ffd5b67ffffffffffffffff8111611e4257601f01601f191660200190565b81601f8201121561145a57803590611e8982611e56565b92611e976040519485611e20565b8284526020838301011161145a57815f926020809301838601378301015290565b67ffffffffffffffff8111611e425760051b60200190565b90600182811c92168015611efe575b6020831014611eea57565b634e487b7160e01b5f52602260045260245ffd5b91607f1691611edf565b9060405191825f825492611f1b84611ed0565b8084529360018116908115611f865750600114611f42575b50611f4092500383611e20565b565b90505f9291925260205f20905f915b818310611f6a575050906020611f40928201015f611f33565b6020919350806001915483858901015201910190918492611f51565b905060209250611f4094915060ff191682840152151560051b8201015f611f33565b805180835260209291819084018484015e5f828201840152601f01601f1916010190565b9060048210156114995752565b8054600160401b811015611e4257611ff691600182018155611df7565b819291549060031b91821b915f19901b1916179055565b9081602091031261145a5751801515810361145a5790565b3d1561204f573d9061203682611e56565b916120446040519384611e20565b82523d5f602084013e565b606090565b1561205b57565b60405162461bcd60e51b8152602060048201526013602482015272115512081d1c985b9cd9995c8819985a5b1959606a1b6044820152606490fd5b919082039182116120a357565b634e487b7160e01b5f52601160045260245ffd5b156120be57565b60405162461bcd60e51b815260206004820152600c60248201526b139bdd081e5bdd5c8818995d60a21b6044820152606490fd5b919082018092116120a357565b805f52600460205260405f205f9160035f920154905b8183106121225750505090565b909192612148600191835f52600560205260405f20865f5260205260405f2054906120f2565b93019190612115565b818102929181159184041417156120a357565b811561216e570490565b634e487b7160e01b5f52601260045260245ffd5b90815f52600560205260405f20905f526020526121a360405f2054916120ff565b80156121c8576064820291808304606414901517156120a3576121c591612164565b90565b5050603290565b156121d657565b60405162461bcd60e51b815260206004820152600f60248201526e26b0b935b2ba103737ba1037b832b760891b6044820152606490fd5b1561221457565b60405162461bcd60e51b815260206004820152600f60248201526e496e76616c6964206f7574636f6d6560881b6044820152606490fd5b5f1981146120a35760010190565b5f5b82811061226757505050565b5f8282015560010161225b565b90815f52600560205260405f20905f5260205260405f20549081156122d65761229c906120ff565b6122a683836120f2565b916064840293808504606414901517156120a3576122ca6122d0926121c595612151565b92612151565b90612164565b50506064810290808204606414901517156120a35790565b60025f51602061234d5f395f51905f5254146123175760025f51602061234d5f395f51905f5255565b633ee5aeb560e01b5f5260045ffd5b5f546001600160a01b0316330361233957565b63118cdaa760e01b5f523360045260245ffdfe9b779b17422d0df92223018b32b4d1fa46e071723d6817e2486d003becc55f00a26469706673582212208669d927ce8babf34343a4ebd88ae4ace5b0691e533bd68ce4e00bc154b81a2e64736f6c63430008210033","linkReferences":{}},"methodIdentifiers":{"FEE_DENOMINATOR()":"d73792a9","PLATFORM_FEE()":"34fbc9a1","betCount()":"cf094497","bets(uint256)":"22af00fa","buyPosition(uint256)":"0fd9eab4","calculateShares(uint256,uint256,uint256)":"eea04d09","cancelListing(uint256)":"305a67a8","claimWinnings(uint256)":"677bd9ff","collectedFees(address)":"1cead9a7","createMarket(string,string,string[],uint256,address,address)":"9395c51d","getAvailableFees(address)":"007a94c1","getMarket(uint256)":"eb44fdd3","getMarketBets(uint256)":"3adadc0a","getPrice(uint256,uint256)":"5cf4ee91","getTotalPool(uint256)":"3a35b9bd","getUserBets(address)":"2d56657d","listPosition(uint256,uint256)":"c3df2be0","marketBets(uint256,uint256)":"f2e55021","marketCount()":"ec979082","markets(uint256)":"b1283e77","outcomePools(uint256,uint256)":"83bd2467","outcomeShares(uint256,uint256)":"a501f0a4","owner()":"8da5cb5b","placeBet(uint256,uint256,uint256,uint256)":"fde6adb1","positionPrices(uint256)":"0cc90fe1","positionsForSale(uint256)":"5473543c","renounceOwnership()":"715018a6","reputationSystem()":"6587eda1","resolveMarket(uint256,uint256)":"60557333","transferOwnership(address)":"f2fde38b","userBets(address,uint256)":"8068aa68","withdrawFees(address)":"164e68de"},"id":1}