{"abi":[{"type":"constructor","inputs":[{"name":"_reputationSystem","type":"address","internalType":"address"}],"stateMutability":"nonpayable"},{"type":"receive","stateMutability":"payable"},{"type":"function","name":"betCount","inputs":[],"outputs":[{"name":"","type":"uint256","internalType":"uint256"}],"stateMutability":"view"},{"type":"function","name":"buyPosition","inputs":[{"name":"_betId","type":"uint256","internalType":"uint256"}],"outputs":[],"stateMutability":"payable"},{"type":"function","name":"calculateShares","inputs":[{"name":"","type":"uint256","internalType":"uint256"},{"name":"","type":"uint256","internalType":"uint256"},{"name":"_amount","type":"uint256","internalType":"uint256"}],"outputs":[{"name":"","type":"uint256","internalType":"uint256"}],"stateMutability":"pure"},{"type":"function","name":"cancelListing","inputs":[{"name":"_betId","type":"uint256","internalType":"uint256"}],"outputs":[],"stateMutability":"nonpayable"},{"type":"function","name":"claimWinnings","inputs":[{"name":"_betId","type":"uint256","internalType":"uint256"}],"outputs":[],"stateMutability":"nonpayable"},{"type":"function","name":"createMarket","inputs":[{"name":"_description","type":"string","internalType":"string"},{"name":"_details","type":"string","internalType":"string"},{"name":"_outcomes","type":"string[]","internalType":"string[]"},{"name":"_resolutionTime","type":"uint256","internalType":"uint256"},{"name":"_arbitrator","type":"address","internalType":"address"},{"name":"_tokenAddress","type":"address","internalType":"address"}],"outputs":[{"name":"","type":"uint256","internalType":"uint256"}],"stateMutability":"nonpayable"},{"type":"function","name":"getAvailableFees","inputs":[{"name":"_tokenAddress","type":"address","internalType":"address"}],"outputs":[{"name":"","type":"uint256","internalType":"uint256"}],"stateMutability":"view"},{"type":"function","name":"getMarket","inputs":[{"name":"_marketId","type":"uint256","internalType":"uint256"}],"outputs":[{"name":"id","type":"uint256","internalType":"uint256"},{"name":"description","type":"string","internalType":"string"},{"name":"details","type":"string","internalType":"string"},{"name":"outcomes","type":"string[]","internalType":"string[]"},{"name":"resolutionTime","type":"uint256","internalType":"uint256"},{"name":"arbitrator","type":"address","internalType":"address"},{"name":"tokenAddress","type":"address","internalType":"address"},{"name":"status","type":"uint8","internalType":"enum WorldCupBetting.MarketStatus"},{"name":"winningOutcome","type":"uint256","internalType":"uint256"},{"name":"creator","type":"address","internalType":"address"}],"stateMutability":"view"},{"type":"function","name":"getMarketBets","inputs":[{"name":"_marketId","type":"uint256","internalType":"uint256"}],"outputs":[{"name":"","type":"uint256[]","internalType":"uint256[]"}],"stateMutability":"view"},{"type":"function","name":"getPrice","inputs":[{"name":"_marketId","type":"uint256","internalType":"uint256"},{"name":"_outcomeIndex","type":"uint256","internalType":"uint256"}],"outputs":[{"name":"","type":"uint256","internalType":"uint256"}],"stateMutability":"view"},{"type":"function","name":"getTotalPool","inputs":[{"name":"_marketId","type":"uint256","internalType":"uint256"}],"outputs":[{"name":"","type":"uint256","internalType":"uint256"}],"stateMutability":"view"},{"type":"function","name":"getUserBets","inputs":[{"name":"_user","type":"address","internalType":"address"}],"outputs":[{"name":"","type":"uint256[]","internalType":"uint256[]"}],"stateMutability":"view"},{"type":"function","name":"listPosition","inputs":[{"name":"_betId","type":"uint256","internalType":"uint256"},{"name":"_price","type":"uint256","internalType":"uint256"}],"outputs":[],"stateMutability":"nonpayable"},{"type":"function","name":"marketCount","inputs":[],"outputs":[{"name":"","type":"uint256","internalType":"uint256"}],"stateMutability":"view"},{"type":"function","name":"owner","inputs":[],"outputs":[{"name":"","type":"address","internalType":"address"}],"stateMutability":"view"},{"type":"function","name":"placeBet","inputs":[{"name":"_marketId","type":"uint256","internalType":"uint256"},{"name":"_outcomeIndex","type":"uint256","internalType":"uint256"},{"name":"_amount","type":"uint256","internalType":"uint256"},{"name":"_minShares","type":"uint256","internalType":"uint256"}],"outputs":[{"name":"","type":"uint256","internalType":"uint256"}],"stateMutability":"payable"},{"type":"function","name":"renounceOwnership","inputs":[],"outputs":[],"stateMutability":"nonpayable"},{"type":"function","name":"reputationSystem","inputs":[],"outputs":[{"name":"","type":"address","internalType":"contract IReputationSystem"}],"stateMutability":"view"},{"type":"function","name":"resolveMarket","inputs":[{"name":"_marketId","type":"uint256","internalType":"uint256"},{"name":"_winningOutcome","type":"uint256","internalType":"uint256"}],"outputs":[],"stateMutability":"nonpayable"},{"type":"function","name":"transferOwnership","inputs":[{"name":"newOwner","type":"address","internalType":"address"}],"outputs":[],"stateMutability":"nonpayable"},{"type":"function","name":"withdrawFees","inputs":[{"name":"_tokenAddress","type":"address","internalType":"address"}],"outputs":[],"stateMutability":"nonpayable"},{"type":"event","name":"OwnershipTransferred","inputs":[{"name":"previousOwner","type":"address","indexed":true,"internalType":"address"},{"name":"newOwner","type":"address","indexed":true,"internalType":"address"}],"anonymous":false},{"type":"error","name":"OwnableInvalidOwner","inputs":[{"name":"owner","type":"address","internalType":"address"}]},{"type":"error","name":"OwnableUnauthorizedAccount","inputs":[{"name":"account","type":"address","internalType":"address"}]},{"type":"error","name":"ReentrancyGuardReentrantCall","inputs":[]}],"bytecode":{"object":"0x6080346100f657601f611c6338819003918201601f19168301916001600160401b038311848410176100fa578084926020946040528339810103126100f657516001600160a01b038116908190036100f65760017f9b779b17422d0df92223018b32b4d1fa46e071723d6817e2486d003becc55f005533156100e3575f8054336001600160a01b0319821681178355604051939290916001600160a01b0316907f8be0079c531659141344cd1fd0a4f28419497f9722a3daafe3b4186f6b6457e09080a3600180546001600160a01b031916919091179055611b54908161010f8239f35b631e4fbdf760e01b5f525f60045260245ffd5b5f80fd5b634e487b7160e01b5f52604160045260245ffdfe608080604052600436101561001c575b50361561001a575f80fd5b005b5f905f3560e01c9081627a94c11461152e575080630fd9eab414611317578063164e68de1461126b5780632d56657d146111f9578063305a67a8146111a25780633a35b9bd146111755780633adadc0a146111015780635cf4ee91146110e05780636055733314610fb95780636587eda114610f91578063677bd9ff14610d3a578063715018a614610ce05780638da5cb5b14610cb95780639395c51d1461070e578063c3df2be01461062d578063cf0944971461060f578063eb44fdd314610475578063ec97908214610457578063eea04d0914610439578063f2fde38b146103b35763fde6adb10361000f5760803660031901126103b0576024356004356044356101276119e9565b818452600460205260408420610142600382015442106116d4565b600581015460ff8160a01c16600481101561039c57906101638792156116d4565b6101726002840154871061185f565b6001600160a01b0316806103235750349250505b60643582106102ea57600890838652600660205260408620858752602052604086206101b38482546118db565b9055016101c18282546118db565b90556101ce6003546118e8565b92836003556040519160e0830183811067ffffffffffffffff8211176102d6576040908152848452602080850193845284820192835233606086019081526080860189815260a08088018b815260c089018c81528b8d5260058652868d2099518a55975160018a01559551600289015591516003880180549251965160ff60a81b90151560a81b1660ff60a01b97151590941b969096166001600160a01b039091166001600160b01b031990921691909117171790925591516004909301929092559184526007815281842090936102bd9284929091906102b0908490611710565b3381526008865220611710565b60015f516020611aff5f395f51905f5255604051908152f35b634e487b7160e01b87526041600452602487fd5b60405162461bcd60e51b815260206004820152601160248201527014db1a5c1c1859d948195e18d959591959607a1b6044820152606490fd5b6040516323b872dd60e01b8152336004820152306024820152604481018590529160209183916064918391905af1801561039157610362575b50610186565b6103839060203d60201161038a575b61037b81836115c7565b81019061174b565b505f61035c565b503d610371565b6040513d88823e3d90fd5b634e487b7160e01b87526021600452602487fd5b80fd5b50346103b05760203660031901126103b0576103cd611562565b6103d5611a21565b6001600160a01b031680156104255781546001600160a01b03198116821783556001600160a01b03167f8be0079c531659141344cd1fd0a4f28419497f9722a3daafe3b4186f6b6457e08380a380f35b631e4fbdf760e01b82526004829052602482fd5b50346103b05760603660031901126103b05760206040516044358152f35b50346103b057806003193601126103b0576020600254604051908152f35b50346103b05760203660031901126103b0576004358082526004602052816040812060028101600382015460018060a01b0360048401541660058401549060ff8260a01c169260068601549460018060a01b03600788015416966104e460016104dd83611949565b9201611949565b9082546104f08161165f565b936104fe60405195866115c7565b8185526020850190819c528d6020812090915b8383106105f257505050509061053e61054c9261014060206040519e8f90815201526101408d0190611677565b908b820360408d0152611677565b9089820360608b015251808252602082019160208260051b82010199928c915b8383106105c5575050505050608088015260a08701526001600160a01b031660c086015260048110156105b15784955060e08501526101008401526101208301520390f35b634e487b7160e01b86526021600452602486fd5b909192939a6020806105e36001938f601f1987830301885251611677565b9d01930193019193929061056c565b60016020819261060185611949565b815201920192019190610511565b50346103b057806003193601126103b0576020600354604051908152f35b50346103b05761063c366115b1565b908252600560205260408220600381018054939291906106666001600160a01b0386163314611792565b61067660ff8660a01c161561189d565b60ff8560a81c166106d85781548452600460205260ff600560408620015460a01c169460048610156106c4576106b06004949596156116d4565b60ff60a81b1916600160a81b179055015580f35b634e487b7160e01b85526021600452602485fd5b60405162461bcd60e51b815260206004820152600e60248201526d105b1c9958591e481b1a5cdd195960921b6044820152606490fd5b50346103b05760c03660031901126103b05760043567ffffffffffffffff8111610cb557610740903690600401611619565b60243567ffffffffffffffff8111610cb157610760903690600401611619565b9060443567ffffffffffffffff8111610cad5736602382011215610cad57806004013561078c8161165f565b9161079a60405193846115c7565b818352602083019160051b810160240182368211610ca95760248301905b828210610c75575050608435929150506001600160a01b0382168203610c715760a435926001600160a01b0384168403610c6d576107f76002546118e8565b95866002558688526004602052604088209580519067ffffffffffffffff8211610bbd5761082588546118f6565b601f8111610c33575b50602090601f8311600114610bd15761085e92918b91836109b9575b50508160011b915f199060031b1c19161790565b86555b8051600187019167ffffffffffffffff8211610bbd5761088183546118f6565b601f8111610b7a575b50602090601f8311600114610b18576108b992918b91836109b95750508160011b915f199060031b1c19161790565b90555b60028501905191600160401b8311610b04578154838355808410610a86575b509087526020872087915b83831061094b5760643560038801556004870180546001600160a01b03199081166001600160a01b03808916919091179092556005890180546001600160a81b0319169289169290921790915560078801805490911633179055604051888152602090f35b805180519067ffffffffffffffff8211610a725761096984546118f6565b601f8111610a2d575b506020908b601f84116001146109c45783600195929460209487966109aa94926109b95750508160011b915f199060031b1c19161790565b85555b019201920191906108e6565b015190505f8061084a565b50848c52818c209190601f1984168d5b818110610a1557509360209360019693879693838895106109fd575b505050811b0185556109ad565b01515f1960f88460031b161c191690555f80806109f0565b929360206001819287860151815501950193016109d4565b8281111561097257610a6490858d528c6020812091601f860160051c9160208710610a6a575b50601f82910160051c03910161192e565b5f610972565b91508e610a53565b634e487b7160e01b8b52604160045260248bfd5b828952838060208b2001910390895b828110610aa35750506108db565b808b6001928401610ab481546118f6565b80610ac3575b50505001610a95565b601f81118514610ad85750555b8b5f80610aba565b81835260208320610af491601f0160051c5f190190860161192e565b8082528160208120915555610ad0565b634e487b7160e01b88526041600452602488fd5b838b52818b209190601f1984168c5b818110610b625750908460019594939210610b4a575b505050811b0190556108bc565b01515f1960f88460031b161c191690555f8080610b3d565b92936020600181928786015181550195019301610b27565b8281111561088a57610baf90848c5260208c2090601f850160051c9060208610610bb5575b601f82910160051c03910161192e565b5f61088a565b8d9150610b9f565b634e487b7160e01b8a52604160045260248afd5b888b52818b209190601f1984168c5b818110610c1b5750908460019594939210610c03575b505050811b018655610861565b01515f1960f88460031b161c191690555f8080610bf6565b92936020600181928786015181550195019301610be0565b8281111561082e57610c6790898c5260208c2090601f850160051c9060208610610bb557601f82910160051c03910161192e565b5f61082e565b8680fd5b8580fd5b813567ffffffffffffffff8111610ca557602091610c9a839260243691890101611619565b8152019101906107b8565b8980fd5b8780fd5b8380fd5b8280fd5b5080fd5b50346103b057806003193601126103b057546040516001600160a01b039091168152602090f35b50346103b057806003193601126103b057610cf9611a21565b80546001600160a01b03198116825581906001600160a01b03167f8be0079c531659141344cd1fd0a4f28419497f9722a3daafe3b4186f6b6457e08280a380f35b5034610f0b576020366003190112610f0b57610d546119e9565b6004355f908152600560205260409020600381018054929190610d816001600160a01b0385163314611792565b610d9160ff8560a01c161561189d565b60ff8460a81c16610f575781545f52600460205260405f2090600582019460ff865460a01c166004811015610f4357600203610f0f5760ff60a01b1916600160a01b17905560018281015460068301805492549092909114906001600160a01b0316803b15610f0b575f80916044604051809481936371609f1960e11b83523360048401528760248401525af1610ef6575b50610e3e575b8360015f516020611aff5f395f51905f525580f35b825484526006602052604084209054845260205260086002604085205493015491015490818102918183041490151715610ee25790610e7c916117ca565b60c8810281810460c81482151715610ee257612710900492838203918211610ee25780546001600160a01b0316835260096020526040832080549394610ed994610ec691906118db565b90555433906001600160a01b0316611a47565b805f8080610e29565b634e487b7160e01b83526011600452602483fd5b610f039195505f906115c7565b5f935f610e23565b5f80fd5b60405162461bcd60e51b815260206004820152600c60248201526b139bdd081c995cdbdb1d995960a21b6044820152606490fd5b634e487b7160e01b5f52602160045260245ffd5b60405162461bcd60e51b8152602060048201526012602482015271141bdcda5d1a5bdb881a5cc81b1a5cdd195960721b6044820152606490fd5b34610f0b575f366003190112610f0b576001546040516001600160a01b039091168152602090f35b34610f0b57610fc7366115b1565b905f52600460205260405f20600381015442106110af5760048101546001600160a01b0316330361107857600581019060ff825460a01c166004811015610f43576110335760069161101e6002830154851061185f565b805460ff60a01b1916600160a11b1790550155005b60405162461bcd60e51b815260206004820152601760248201527f4d61726b657420616c7265616479207265736f6c7665640000000000000000006044820152606490fd5b60405162461bcd60e51b815260206004820152600f60248201526e27b7363c9030b93134ba3930ba37b960891b6044820152606490fd5b60405162461bcd60e51b8152602060048201526009602482015268546f6f206561726c7960b81b6044820152606490fd5b34610f0b5760206110f96110f3366115b1565b906117e8565b604051908152f35b34610f0b576020366003190112610f0b576004355f52600760205260405f206040519081602082549182815201915f5260205f20905f5b81811061115f5761115b8561114f818703826115c7565b60405191829182611578565b0390f35b8254845260209093019260019283019201611138565b34610f0b576020366003190112610f0b576004355f5260046020526020600860405f200154604051908152f35b34610f0b576020366003190112610f0b576004355f5260056020525f6004604082206003810180546111dd3360018060a01b03831614611792565b6111ec60ff8260a81c1661169b565b60ff60a81b191690550155005b34610f0b576020366003190112610f0b576001600160a01b0361121a611562565b165f52600860205260405f206040519081602082549182815201915f5260205f20905f5b8181106112555761115b8561114f818703826115c7565b825484526020909301926001928301920161123e565b34610f0b576020366003190112610f0b57611284611562565b61128c611a21565b6112946119e9565b6001600160a01b0381165f81815260096020526040902054909181156112e8576112d5925f5260096020525f604081205560018060a01b035f541690611a47565b60015f516020611aff5f395f51905f5255005b60405162461bcd60e51b81526020600482015260076024820152664e6f206665657360c81b6044820152606490fd5b6020366003190112610f0b5760043561132e6119e9565b805f52600560205260405f20906003820180549261135160ff8560a81c1661169b565b6001600160a01b038416923384146114f05781545f526004602052600560405f20019260ff845460a01c16926004841015610f435760045f916113976113cb96156116d4565b01805460ff60a81b1990981683555580546001600160a01b031916339081179091555f908152600860205260409020611710565b546001600160a01b03168061147a5750813403611442575f80809381935af16113f2611763565b501561140b5760015f516020611aff5f395f51905f5255005b60405162461bcd60e51b815260206004820152600f60248201526e151c985b9cd9995c8819985a5b1959608a1b6044820152606490fd5b60405162461bcd60e51b815260206004820152601060248201526f15dc9bdb99c811551208185b5bdd5b9d60821b6044820152606490fd5b6040516323b872dd60e01b81523360048201526001600160a01b03929092166024830152604482019290925290602090829060649082905f905af180156114e5576114c6575b506112d5565b6114de9060203d60201161038a5761037b81836115c7565b50806114c0565b6040513d5f823e3d90fd5b60405162461bcd60e51b815260206004820152601660248201527543616e6e6f7420627579206f776e206c697374696e6760501b6044820152606490fd5b34610f0b576020366003190112610f0b576020906001600160a01b03611552611562565b165f526009825260405f20548152f35b600435906001600160a01b0382168203610f0b57565b60206040818301928281528451809452019201905f5b81811061159b5750505090565b825184526020938401939092019160010161158e565b6040906003190112610f0b576004359060243590565b90601f8019910116810190811067ffffffffffffffff8211176115e957604052565b634e487b7160e01b5f52604160045260245ffd5b67ffffffffffffffff81116115e957601f01601f191660200190565b81601f82011215610f0b57803590611630826115fd565b9261163e60405194856115c7565b82845260208383010111610f0b57815f926020809301838601378301015290565b67ffffffffffffffff81116115e95760051b60200190565b805180835260209291819084018484015e5f828201840152601f01601f1916010190565b156116a257565b60405162461bcd60e51b815260206004820152600a602482015269139bdd081b1a5cdd195960b21b6044820152606490fd5b156116db57565b60405162461bcd60e51b815260206004820152600d60248201526c13585c9ad95d0818db1bdcd959609a1b6044820152606490fd5b805490600160401b8210156115e95760018201808255821015611737575f5260205f200155565b634e487b7160e01b5f52603260045260245ffd5b90816020910312610f0b57518015158103610f0b5790565b3d1561178d573d90611774826115fd565b9161178260405193846115c7565b82523d5f602084013e565b606090565b1561179957565b60405162461bcd60e51b81526020600482015260096024820152682737ba1037bbb732b960b91b6044820152606490fd5b81156117d4570490565b634e487b7160e01b5f52601260045260245ffd5b90815f526004602052600860405f200154918215611858575f52600660205260405f20905f5260205260405f205490670de0b6b3a7640000820291808304670de0b6b3a7640000149015171561184457611841916117ca565b90565b634e487b7160e01b5f52601160045260245ffd5b5050505f90565b1561186657565b60405162461bcd60e51b815260206004820152600f60248201526e496e76616c6964206f7574636f6d6560881b6044820152606490fd5b156118a457565b60405162461bcd60e51b815260206004820152600f60248201526e105b1c9958591e4818db185a5b5959608a1b6044820152606490fd5b9190820180921161184457565b5f1981146118445760010190565b90600182811c92168015611924575b602083101461191057565b634e487b7160e01b5f52602260045260245ffd5b91607f1691611905565b5f5b82811061193c57505050565b5f82820155600101611930565b9060405191825f82549261195c846118f6565b80845293600181169081156119c75750600114611983575b50611981925003836115c7565b565b90505f9291925260205f20905f915b8183106119ab575050906020611981928201015f611974565b6020919350806001915483858901015201910190918492611992565b90506020925061198194915060ff191682840152151560051b8201015f611974565b60025f516020611aff5f395f51905f525414611a125760025f516020611aff5f395f51905f5255565b633ee5aeb560e01b5f5260045ffd5b5f546001600160a01b03163303611a3457565b63118cdaa760e01b5f523360045260245ffd5b6001600160a01b031680611aa957505f80809381935af1611a66611763565b5015611a6e57565b60405162461bcd60e51b8152602060048201526013602482015272115512081d1c985b9cd9995c8819985a5b1959606a1b6044820152606490fd5b9160446020925f604051958694859363a9059cbb60e01b855260018060a01b0316600485015260248401525af180156114e557611ae35750565b611afb9060203d60201161038a5761037b81836115c7565b5056fe9b779b17422d0df92223018b32b4d1fa46e071723d6817e2486d003becc55f00a2646970667358221220e9189679143ed862fd086698a1d32f712c621f8aa1f69eb4a5501db4341f8c6d64736f6c63430008210033","linkReferences":{}},"methodIdentifiers":{"betCount()":"cf094497","buyPosition(uint256)":"0fd9eab4","calculateShares(uint256,uint256,uint256)":"eea04d09","cancelListing(uint256)":"305a67a8","claimWinnings(uint256)":"677bd9ff","createMarket(string,string,string[],uint256,address,address)":"9395c51d","getAvailableFees(address)":"007a94c1","getMarket(uint256)":"eb44fdd3","getMarketBets(uint256)":"3adadc0a","getPrice(uint256,uint256)":"5cf4ee91","getTotalPool(uint256)":"3a35b9bd","getUserBets(address)":"2d56657d","listPosition(uint256,uint256)":"c3df2be0","marketCount()":"ec979082","owner()":"8da5cb5b","placeBet(uint256,uint256,uint256,uint256)":"fde6adb1","renounceOwnership()":"715018a6","reputationSystem()":"6587eda1","resolveMarket(uint256,uint256)":"60557333","transferOwnership(address)":"f2fde38b","withdrawFees(address)":"164e68de"},"id":3}